:100000000C945E000C947C050C9455050C948600B1
:100010000C9486000C9486000C9486000C94860048
:100020000C9486000C9486000C9486000C94860038
:100030000C9486000C9486000C9486000C94860028
:100040000C940B050C9486000C94D9040C94B30406
:100050000C9486000C9486000C9486000C94860008
:100060000C94A3050C9486000000000024002700D7
:100070002A0000000008000201000003040700003D
:10008000000000000000010204081020408001026E
:1000900004081020010204081020000000002500C0
:1000A00028002B00040404040404040402020202D5
:1000B0000202030303030303C206FF0B11241FBE46
:1000C000CFEFD8E0DEBFCDBF11E0A0E0B1E0ECEDB6
:1000D000FEE102C005900D92AA38B107D9F723E0DE
:1000E000AAE8B1E001C01D92AA30B207E1F710E022
:1000F000CDE5D0E004C02197FE010E941B0ECC3557
:10010000D107C9F70E947D070C94610F0C94000081
:100110002091460281E0213208F044C08091220201
:100120008111FCCF8091450292E09093220291E0F0
:10013000909321029FEF9093200210921F02209330
:100140001E02A5E2B2E0EEEFF1E090E0291331C02B
:100150001092FD019091FD01880F892B8093FD0184
:100160008091FC01813049F51092FC018091FD01E4
:100170008093BB008091BC0083FDF8CF85EC809319
:10018000BC00809122028230E1F3809120028F3FF7
:10019000B1F0809120028032A1F080912002803362
:1001A00091F084E0109224021092460210922302F1
:1001B00008953D9131939F5FC9CF85EEE0CF80E0F8
:1001C000F1CF82E0EFCF83E0EDCF9091FB01809102
:1001D000FA012FEF3FEF981748F4E92FF0E0E652CD
:1001E000FE4F208130E09F5F9093FB01C90108958D
:1001F0009091FB018091FA012FEF3FEF981748F49F
:10020000E92FF0E0E652FE4F208130E09F5F9093AF
:10021000FB01C9010895909122029111FCCF91E058
:1002200090932202909321022FEF209320021092AC
:100230001F02260F20931E029093FD019091FD0155
:10024000880F892B8093FD018091FC018130F9F4A6
:100250001092FC018091FD018093BB008091BC0055
:1002600083FDF8CF85EC8093BC0080912202813021
:10027000E1F380911F02861710F460911F02AEEF28
:10028000B1E0EAEDF1E080E0861303C0089585EE69
:10029000EACF9D9191938F5FF7CF8091FA01909172
:1002A000FB01891B990B089508950895AF92BF92A1
:1002B000CF92DF92EF92FF920F931F93CF93DF9332
:1002C0006C017B018B01040F151FEB015E01AE1861
:1002D000BF08C017D10759F06991D601ED91FC9183
:1002E0000190F081E02DC6010995892B79F7C501B0
:1002F000DF91CF911F910F91FF90EF90DF90CF9002
:10030000BF90AF900895FC01538D448D252F30E0B0
:10031000842F90E0821B930B541710F0CF96089512
:1003200001970895FC01918D828D981761F0A28D3F
:10033000AE0FBF2FB11D5D968C91928D9F5F9F7305
:10034000928F90E008958FEF9FEF0895FC01918DBB
:10035000828D981731F0828DE80FF11D858D90E028
:1003600008958FEF9FEF0895FC01918D228D892FC5
:1003700090E0805C9F4F821B91098F7399270895AD
:1003800087E492E00E94B40121E0892B09F420E087
:10039000822F089580E090E0892B29F00E94C0010F
:1003A00081110C9400000895FC01A48DA80FB92FB1
:1003B000B11DA35ABF4F2C91848D90E001968F738D
:1003C0009927848FA689B7892C93A089B1898C91AC
:1003D000837080648C93938D848D981306C00288FB
:1003E000F389E02D80818F7D80830895EF92FF92C5
:1003F0000F931F93CF93DF93EC0181E0888F9B8D48
:100400008C8D98131AC0E889F989808185FF15C001
:100410009FB7F894EE89FF896083E889F989808124
:100420008370806480839FBF81E090E0DF91CF91F3
:100430001F910F91FF90EF900895F62E0B8D10E015
:100440000F5F1F4F0F731127E02E8C8D8E110CC084
:100450000FB607FCFACFE889F989808185FFF5CFCF
:10046000CE010E94D401F1CFEB8DEC0FFD2FF11DD9
:10047000E35AFF4FF0829FB7F8940B8FEA89FB890C
:1004800080818062CFCF682F87E492E00C94F601E0
:10049000CF93DF93EC01888D8823B9F0AA89BB89BB
:1004A000E889F9898C9185FD03C0808186FD0DC0A6
:1004B0000FB607FCF7CF8C9185FFF2CF808185FFC7
:1004C000EDCFCE010E94D401E9CFDF91CF91089505
:1004D00090E0FC01EE58FF4F2491FC01EA57FF4FDA
:1004E0003491FC01EC55FF4FE491EE23C9F0222337
:1004F00039F0233001F1A8F4213019F1223029F12B
:10050000F0E0EE0FFF1FE656FF4FA591B4918FB7B5
:10051000F894EC91611126C030953E233C938FBF37
:1005200008952730A9F02830C9F0243049F7809188
:1005300080008F7D03C0809180008F778093800042
:10054000DFCF84B58F7784BDDBCF84B58F7DFBCFC4
:100550008091B0008F778093B000D2CF8091B000AF
:100560008F7DF9CF3E2BDACFCF93DF9390E0FC0164
:10057000EA57FF4F24918C559F4FFC0184918823AB
:10058000D1F090E0880F991FFC01E859FF4FA59129
:10059000B491FC01E656FF4FC591D49161110EC094
:1005A0009FB7F8948C91E22FE0958E238C9328814D
:1005B000E223E8839FBFDF91CF9108958FB7F8942E
:1005C000EC91E22BEC938FBFF6CF3FB7F89480917C
:1005D000D2019091D301A091D401B091D50126B55B
:1005E000A89B05C02F3F19F00196A11DB11D3FBF6B
:1005F000BA2FA92F982F8827BC01CD01620F711D3A
:10060000811D911D42E0660F771F881F991F4A9533
:10061000D1F70895089585ED8093BC008091BC00CA
:1006200084FDFCCF1092220208952091AA01260F8A
:100630003327331F21323105ECF420912202FC01D3
:1006400090E080E0243069F082E00895A091AA0152
:100650002191AC0146575E4FA40FB52FB11D2C93CD
:100660000196861798F38091AA01680F6093AA01FA
:1006700080E0089581E008950895E091FB01809164
:10068000FA01E81730F4F0E0E652FE4F808190E086
:1006900008958FEF9FEF0895CF92DF92EF92FF9230
:1006A0000F931F93CF93DF937C01CB018A0120919D
:1006B0002302222389F0EB016B01C40ED51ECC1559
:1006C000DD0569F06991D701ED91FC910190F08110
:1006D000E02DC7010995F3CF642F0E941503C801CF
:1006E000DF91CF911F910F91FF90EF90DF90CF900E
:1006F0000895CF93DF931F92CDB7DEB76983209122
:1007000023022223F9F020914602203258F021E002
:1007100030E0FC013383228390E080E00F90DF9192
:10072000CF91089580912402E82FF0E0EB5DFD4F1A
:10073000998190838F5F809324028093460281E0A9
:1007400090E0ECCF61E0CE0101960E941503F7CF57
:10075000682F84EE92E00C947903CF93C82F81E048
:100760008093230288E6809345021092240210921F
:1007700046028FE090E0611102C08EE090E00E949E
:10078000A8036C2F84EE92E00E947903CF910C9421
:10079000880090E080E00895CF93DF93F0E0E0E000
:1007A000C82FD0E072E3AE014E0F5F1F8091F202BE
:1007B0009091F3024817590760F52091F80292E3EF
:1007C000222321F0279F90011124932FA091FE0254
:1007D0002091F9023091FA028091FB02A8131FC008
:1007E000DA01AA0FBB1F4A0F5B1F240F351FA09110
:1007F000FB02A20FB32FB11D9C93A091FC02A20F8C
:10080000B32FB11D9C938091FD02280F311DD9019A
:100810009C933196E61738F2DF91CF910895440FFB
:10082000551F440F551F240F351FA20FB32FB11DA5
:100830001C92DDCF682F88E60E940B011092FB010D
:100840008093FA01089591E09093230298E69093A3
:1008500045021092240210924602882369F08FE02C
:1008600090E00E94A8030E94880081E090E00E942E
:100870001A040E94F80008958EE090E0F2CFFC0187
:1008800001900020E9F73197AF01481B590BBC01DB
:1008900087E492E00C9456018F929F92AF92BF92A0
:1008A0000F931F93CF93DF93CDB7DEB7A1970FB60A
:1008B000F894DEBF0FBECDBF19A2423008F44AE063
:1008C0008E010F5D1F4F842E912CB12CA12CA50100
:1008D00094010E94F90DE62FB901CA01EA30F4F43F
:1008E000E05DD801EE938D01232B242B252B79F786
:1008F00090E080E0109719F0CD010E943F04A1968E
:100900000FB6F894DEBF0FBECDBFDF91CF911F9120
:100910000F91BF90AF909F908F900895E95CE1CFC9
:10092000682F70E090E080E04AE00C944C04CF9394
:10093000DF930E943F04EC018EE291E00E943F04AD
:100940008C0F9D1FDF91CF91089583B78E7F83BF5A
:10095000E8988AE093E0909301018093000181E39D
:1009600091E00C9497041F920F920FB60F921124EE
:100970002F933F934F935F936F937F938F939F93A7
:10098000AF93BF93EF93FF9387E492E00E94D4016B
:10099000FF91EF91BF91AF919F918F917F916F9157
:1009A0005F914F913F912F910F900FBE0F901F902D
:1009B00018951F920F920FB60F9211242F938F93B9
:1009C0009F93EF93FF93E0915702F091580280813B
:1009D000E0915D02F0915E0282FD1BC090818091EA
:1009E00060028F5F8F7320916102821741F0E09166
:1009F0006002F0E0E95BFD4F958F80936002FF910C
:100A0000EF919F918F912F910F900FBE0F901F909C
:100A100018958081F4CF1F920F920FB60F92112478
:100A20002F933F938F939F93AF93BF938091CE016A
:100A30009091CF01A091D001B091D1013091CD0121
:100A400023E0230F2D3758F50196A11DB11D2093EA
:100A5000CD018093CE019093CF01A093D001B093AC
:100A6000D1018091D2019091D301A091D401B09194
:100A7000D5010196A11DB11D8093D2019093D301A0
:100A8000A093D401B093D501BF91AF919F918F9165
:100A90003F912F910F900FBE0F901F90189526E851
:100AA000230F0296A11DB11DD2CF1F920F920FB638
:100AB0000F9211242F933F934F935F936F937F93E4
:100AC0008F939F93AF93BF93EF93FF93E0910201B6
:100AD000F09103010995FF91EF91BF91AF919F9123
:100AE0008F917F916F915F914F913F912F910F90D7
:100AF0000FBE0F901F9018951F920F920FB60F9276
:100B000011242F933F934F935F936F937F938F9312
:100B10009F93AF93BF93EF93FF93E0910001F09108
:100B200001010995FF91EF91BF91AF919F918F9135
:100B30007F916F915F914F913F912F910F900FBED9
:100B40000F901F9018951F920F920FB60F921124BD
:100B50002F933F934F935F936F937F938F939F93C5
:100B6000AF93BF93EF93FF938091B900887F803656
:100B700009F44AC0F0F5883209F4A7C018F58031AD
:100B800009F49BC0B8F4882309F4F9C0883009F44B
:100B900094C0FF91EF91BF91AF919F918F917F9101
:100BA0006F915F914F913F912F910F900FBE0F90DA
:100BB0001F901895883109F488C0803251F78093CE
:100BC000200214C0803409F49DC040F48033B9F38E
:100BD0008833F9F68093200285ECB0C0803509F4A3
:100BE00085C0883509F496C0883499F60E940B03B5
:100BF000D0CF883909F48CC038F5883729F050F403
:100C0000883611F0803729F683E080932202109213
:100C1000CC0157C0883809F47BC0803919F080387E
:100C200009F0B7CF8091CC01803208F071C0E0911B
:100C3000CC0181E08E0F8093CC018091BB00F0E06D
:100C4000E455FE4F80833DC0803B39F0E0F4803AAC
:100C500009F479C0883A09F09CCF84E0809322029D
:100C60001092AB011092AA01E091D801F091D90144
:100C700009958091AA0181110FC081E08093AA019A
:100C800010928A0109C0803C09F4A6CF883C09F47F
:100C9000A3CF883B09F07DCFE091AB0181E08E0FBF
:100CA0008093AB01F0E0E657FE4F80818093BB005C
:100CB0009091AB018091AA0129C08091FD018093A0
:100CC000BB0085EC8093BC0064CF90911F028091A3
:100CD0001E02981758F5E0911F0281E08E0F809355
:100CE0001F02F0E0E250FE4F8081E9CFE0911F0249
:100CF00081E08E0F80931F028091BB00F0E0E250F4
:100D0000FE4F808390911F0280911E029817C8F2B7
:100D100085E8D8CFE0911F0281E08E0F80931F02FB
:100D20008091BB00F0E0E250FE4F80838091210271
:100D300081115CCF81E08093FC0184EA8093BC0048
:100D40001092220226CF85EC8093BC0010922202E2
:100D50008091CC01803230F4E091CC01F0E0E45598
:100D6000FE4F10826091CC0170E0E091D601F091CD
:100D7000D7018CEA91E009951092CC010ACF10922C
:100D8000200234CFCF93DF9310924A02109249028F
:100D900088EE93E0A0E0B0E080934B0290934C0289
:100DA000A0934D02B0934E022EE031E03093480202
:100DB0002093470225EC30E03093540220935302F5
:100DC00024EC30E0309356022093550220EC30E0C2
:100DD000309358022093570221EC30E030935A02AE
:100DE0002093590222EC30E030935C0220935B02A6
:100DF00026EC30E030935E0220935D021092600298
:100E00001092610210926202109263021092E70245
:100E10001092E6028093E8029093E902A093EA021E
:100E2000B093EB0280E291E09093E5028093E402BC
:100E30001092F1021092F8021092FF021092000339
:100E4000109201031092020381E08093FE028093CE
:100E5000FB021092FC0292E09093FD028093F0025C
:100E6000C0EBD1E0D093F502C093F40280EB91E0A7
:100E70000E94350E9093FA028093F9020097A1F137
:100E8000FC019E01119221503040E1F780E990E091
:100E90009093F3028093F20288E090E09093F7023F
:100EA0008093F6028091F102882341F061E088E0AE
:100EB0000E94B40260E088E00E946802ECEAF0E080
:100EC000E491F0E0EE0FFF1FE656FF4F85919491FD
:100ED0009093040380930303EEE8F0E0E491E09341
:100EE0000503DF91CF9108951092F5021092F4025C
:100EF0001092F3021092F202CFCFCF93DF93CDB7CF
:100F0000DEB729970FB6F894DEBF0FBECDBF789439
:100F100084B5826084BD84B5816084BD85B58260FE
:100F200085BD85B5816085BD80916E0081608093AF
:100F30006E00109281008091810082608093810018
:100F40008091810081608093810080918000816028
:100F5000809380008091B10084608093B100809183
:100F6000B00081608093B00080917A0084608093AB
:100F70007A0080917A00826080937A0080917A0072
:100F8000816080937A0080917A00806880937A00F3
:100F90001092C100E0915702F091580282E08083E4
:100FA000E0915702F09158021082E0915302F091C3
:100FB00054021082E0915502F091560280E1808344
:100FC00010925F02E0915B02F0915C0286E0808308
:100FD000E0915902F0915A02808180618083E09112
:100FE0005902F0915A02808188608083E091590211
:100FF000F0915A02808180688083E0915902F091DB
:101000005A0280818F7D80838091F6029091F70251
:1010100097FD08C061E00E94B40260E08091F60292
:101020000E94680211E01093F1024091F402509185
:10103000F50270E060E08091F9029091FA020E945E
:101040005A0F1092FB011092FA0110922402109292
:10105000460210922202109321021092FC0161E0DC
:1010600082E10E94680261E083E10E94680280914F
:10107000B9008E7F8093B9008091B9008D7F8093F5
:10108000B90088E48093B80085E48093BC0084E5CF
:1010900091E09093D9018093D80185E591E09093F8
:1010A000D7018093D60180E00E94230460E08E7F08
:1010B0000E94AD0380E00E94230460E08D7F0E94C7
:1010C000AD031093230288E6809345021092240218
:1010D0001092460287E090E00E94A80380E890E02A
:1010E0000E94A80380E890E00E94A80360E884EED4
:1010F00092E00E94790360E884EE92E00E94790316
:101100000E9488001093230210922402109246023B
:101110008BE090E00E94A80380E890E00E94A80382
:1011200060E884EE92E00E94790360E884EE92E049
:101130000E9479030E94880080E00E94230460E0FE
:1011400086600E94AD0360E082E00E94B40281E408
:1011500091E00E949704AA24A394A8E69A2EB5E0F1
:101160008B2E1CE0B12EA092230290924502109289
:1011700024021092460290E080E00E94A8030E94A0
:10118000880087E090E00E941A040E94F8008F77A0
:10119000282F30E044E0359527954A95E1F7922FC6
:1011A000990F990FF22EF91AFF0CF80E0E94F80011
:1011B0009C0154E0359527955A95E1F72F70332718
:1011C000922F990F990F022F091B000F080F0E94F1
:1011D000F8009C0164E0359527956A95E1F72F703A
:1011E0003327922F990F990F122F191B110F180FD8
:1011F0000E94F8000E94F8009C0174E03595279544
:101200007A95E1F72F703327922F990F990FE22EDD
:10121000E91AEE0CE80E0E94F8009C01E4E0359516
:101220002795EA95E1F72F703327922F990F990FA1
:10123000D22ED91ADD0CD80E0E94F8009C01F4E0E1
:1012400035952795FA95E1F72F703327922F990F4F
:10125000990F622F691B660F860F682F70E060532D
:10126000784F072E000C880B990B4AE00E944C0423
:101270008DE20E9443028D2D0E9490048DE20E9417
:1012800043028E2D0E94900480E20E944302812F2F
:101290000E9490048AE30E944302802F0E949004DF
:1012A0008AE30E9443028F2D0E949004A0922302A1
:1012B00090924502109224021092460281E190E041
:1012C0000E94A8030E94880062E088E60E940B0149
:1012D0001092FB018093FA01C12C9CE3D92E9CE172
:1012E000E92E96ECF92E8823E1F00E94F800F82E02
:1012F0000E94F8007F2C612CB301682B26E07595C5
:1013000067952A95E1F7072E000C880B990B0E9430
:10131000B20C20E030E040E85EE30E94670D6B0114
:101320007C018FE491E00E943F04A7019601C70170
:10133000B6010E94D40D882309F461C084E591E0D0
:101340000E943F0480E691E00E943F0481E00E94F9
:101350002304F82E61E08E7F0E94AD03F0FE04C0EE
:1013600080E791E00E943F0481E00E942304F82E70
:1013700061E08D7F0E94AD03F1FE04C084E791E03F
:101380000E943F048DE50E9443028EE291E00E949C
:101390003F044091F4025091F50270E060E08091CA
:1013A000F9029091FA020E945A0F63E08DE80E94C0
:1013B000CC03802F682D0E94D90D992321F065E080
:1013C00087E80E94CC03802F682D0E94D90D6B2DD9
:1013D0000E94D90D91509B3008F09FC0E92FF0E09A
:1013E000EC50F64F0C941B0EC10AAC0AB30ABA0AB1
:1013F000BD0AC40AC70ACE0AD50AE60ACB0A1601F4
:101400002701E89457F82FEF3FEF4FE75FE7C2015E
:10141000B1010E94D40D81110DC02FEF3FEF4FE7B6
:101420005FE7C201B1010E947C0C18161CF488E52C
:1014300091E086CF2FEF3FEF4FE75FE4C701B601A2
:101440000E94620D18161CF48CE591E079CF2FEF05
:101450003FEF4FE75FECC701B6010E947C0C87FDB0
:10146000F3CF20E030E0A901C701B6010E947C0C57
:1014700087FF07C08DE20E944302F7FAF094F7F865
:10148000F0942AE037ED43EA5BE3C701B6010E941E
:10149000100C1B012C010E94810C6B017C010E942D
:1014A000B00C9B01AC01C201B1010E940F0C1B01E9
:1014B0002C014AE0C701B6010E944C048EE20E9452
:1014C000430220E030E040E251E4C201B1010E9459
:1014D000670D1B012C010E94810C6B01F12CE12C8A
:1014E0004AE0C701B6010E944C04C701B6010E9440
:1014F000B00C9B01AC01C201B1010E940F0C20E0B5
:1015000030E040E251E40E94670D0E94810C90E0BF
:1015100080E04AE00E944C0415CF66E088E10E941A
:10152000CC03812F6B2D0E94D90D915066E084E28F
:101530009B3008F050C0E92FF0E0EF55F54F0C94C8
:101540001B0EE90AA80BAB0BAE0BB10BB40BB70B20
:10155000BA0BBD0BC00BC30B63E08FE70E94CC033B
:1015600067E080E602C067E08CE60E94CC0364E09E
:101570008AE5D5CF66E088E7F1CF66E088E70E948C
:10158000CC0364E084E7EACF64E087E6EECF66E070
:1015900088E70E94CC0364E084E702C066E088E745
:1015A0000E94CC0367E080E602C067E08CE60E9400
:1015B000CC0362E08EE50E94CC03812F90E001967F
:1015C0006CE070E00E94E50D982FAFCF63E08FE7ED
:1015D000E7CF63E088E40E94CC038091F902909108
:1015E000FA02892B09F467C00E94E5020091FF020C
:1015F000109100032091010330910203601B710BD5
:10160000820B930B6C3271408105910568F3F8945D
:101610008091F4029091F5029A838983E091F90216
:10162000F091FA02DF011196808189879091F00292
:10163000E0910303F091040380910503992309F4D9
:10164000A5C09081982B98879081809589238F835E
:101650008F818C8388E08B8348855F8169853B819E
:101660002C8189819A81408367FD242F3A952083BC
:10167000252F39F0661F00C000005083000000C015
:10168000F2CF38E06D9150830000019761F7F0933D
:101690000403E093030369873B832C839A83898344
:1016A00078940E94E5026093FF0270930003809398
:1016B00001039093020388E791E00E94970483B7A7
:1016C000816083BF85EA94E09093010180930001DB
:1016D000809169008C7F826080936900E89A0E9403
:1016E000E5026B017C0184E6282E312C412C512C23
:1016F0000E94E5026C197D098E099F09683E7340BE
:1017000081059105A8F391E0291A31084108510893
:1017100028EEC20E23E0D21EE11CF11C211431047C
:101720004104510429F783B7817F846083BF889582
:1017300083B78E7F83BF80E090E0892B09F413CDBF
:101740000E94C001882309F40ECD0E9400000BCD39
:1017500063E08BE440CF65E08EE43DCF64E084E459
:101760003ACF64E085E537CF63E081E434CF65E0CC
:101770008CE331CF65E080E32ECF64E085E32BCFAF
:1017800063E089E328CF66E08AE225CF9081982B39
:1017900098879081809589238F838F818E8398E0AD
:1017A0009D8348855F8169853D812E8189819A81EC
:1017B000408367FD242F00C000C0208300C000C00C
:1017C00000C000C000C050830000252F3A9541F0B2
:1017D000661F000000C000C000C000C000C0E8CF0D
:1017E00038E06D9100C0508300C0019709F7F09375
:1017F0000403E093030369873D832E834FCF8091D9
:10180000F9029091FA020E94D10E8091F602909115
:10181000F70297FD03C060E00C94B402089550589D
:10182000BB27AA270E94270C0C94280D0E941A0D92
:1018300038F00E94210D20F039F49F3F19F426F46E
:101840000C94170D0EF4E095E7FB0C94110DE92FA5
:101850000E94390D58F3BA1762077307840795077A
:1018600020F079F4A6F50C945B0D0EF4E0950B2EA8
:10187000BA2FA02D0B01B90190010C01CA01A001E2
:101880001124FF27591B99F0593F50F4503E68F13D
:101890001A16F040A22F232F342F4427585FF3CF7E
:1018A000469537952795A795F0405395C9F77EF44F
:1018B0001F16BA0B620B730B840BBAF09150A1F098
:1018C000FF0FBB1F661F771F881FC2F70EC0BA0F1E
:1018D000621F731F841F48F4879577956795B795A6
:1018E000F7959E3F08F0B0CF9395880F08F09927A1
:1018F000EE0F9795879508950E94ED0C08F481E00E
:1019000008950E94410D88F09F5798F0B92F9927AC
:10191000B751B0F0E1F0660F771F881F991F1AF0DA
:10192000BA95C9F714C0B13091F00E945B0DB1E0D7
:1019300008950C945B0D672F782F8827B85F39F0D6
:10194000B93FCCF3869577956795B395D9F73EF473
:1019500090958095709561957F4F8F4F9F4F08951B
:10196000E89409C097FB3EF4909580957095619539
:101970007F4F8F4F9F4F9923A9F0F92F96E9BB27EF
:101980009395F695879577956795B795F111F8CF6B
:10199000FAF4BB0F11F460FF1BC06F5F7F4F8F4FD6
:1019A0009F4F16C0882311F096E911C0772321F0CC
:1019B0009EE8872F762F05C0662371F096E8862F64
:1019C00070E060E02AF09A95660F771F881FDAF7BB
:1019D000880F9695879597F90895990F0008550FE8
:1019E000AA0BE0E8FEEF16161706E807F907C0F0A5
:1019F00012161306E407F50798F0621B730B840BAD
:101A0000950B39F40A2661F0232B242B252B21F486
:101A100008950A2609F4A140A6958FEF811D811D26
:101A2000089597F99F6780E870E060E008959FEF60
:101A300080EC089500240A94161617061806090665
:101A4000089500240A941216130614060506089534
:101A5000092E0394000C11F4882352F0BB0F40F4BC
:101A6000BF2B11F460FF04C06F5F7F4F8F4F9F4FFC
:101A7000089557FD9058440F551F59F05F3F71F07E
:101A80004795880F97FB991F61F09F3F79F08795E5
:101A90000895121613061406551FF2CF4695F1DF6E
:101AA00008C0161617061806991FF1CF86957105FE
:101AB000610508940895E894BB2766277727CB0132
:101AC00097F908950E94ED0C08F48FEF08950E9495
:101AD0007A0D0C94280D0E941A0D38F00E94210DE9
:101AE00020F0952311F00C94110D0C94170D112476
:101AF0000C945C0D0E94390D70F3959FC1F3950F06
:101B000050E0551F629FF001729FBB27F00DB11D81
:101B1000639FAA27F00DB11DAA1F649F6627B00D11
:101B2000A11D661F829F2227B00DA11D621F739FFA
:101B3000B00DA11D621F839FA00D611D221F749F08
:101B40003327A00D611D231F849F600D211D822F4F
:101B5000762F6A2F11249F5750409AF0F1F0882376
:101B60004AF0EE0FFF1FBB1F661F771F881F9150A3
:101B70005040A9F79E3F510580F00C94110D0C9434
:101B80005C0D5F3FE4F3983ED4F3869577956795B7
:101B9000B795F795E7959F5FC1F7FE2B880F911DCD
:101BA0009695879597F908950E94ED0C880B990BEF
:101BB0000895991B79E004C0991F961708F0961BA9
:101BC000881F7A95C9F78095089597FB072E16F41C
:101BD000009407D077FD09D00E94210E07FC05D0A4
:101BE0003EF4909581959F4F0895709561957F4F34
:101BF0000895A1E21A2EAA1BBB1BFD010DC0AA1F4E
:101C0000BB1FEE1FFF1FA217B307E407F50720F065
:101C1000A21BB30BE40BF50B661F771F881F991FE0
:101C20001A9469F760957095809590959B01AC0129
:101C3000BD01CF010895EE0FFF1F0590F491E02D37
:101C40000994AA1BBB1B51E107C0AA1FBB1FA61703
:101C5000B70710F0A61BB70B881F991F5A95A9F755
:101C600080959095BC01CD0108950F931F93CF935C
:101C7000DF938230910510F482E090E0E091080358
:101C8000F091090330E020E0B0E0A0E0309799F453
:101C90002115310509F44AC0281B390B24303105C0
:101CA000D8F58A819B816115710589F1FB019383C8
:101CB0008283FE0111C04081518102811381481746
:101CC0005907E0F04817590799F4109761F01296F8
:101CD0000C93129713961C933296CF01DF91CF91FC
:101CE0001F910F9108950093080310930903F4CFF7
:101CF0002115310551F04217530738F0A901DB01D6
:101D00009A01BD01DF01F801C1CFEF01F9CF909336
:101D1000090380930803CDCFFE01E20FF31F8193E7
:101D200091932250310939832883D7CF209106031C
:101D300030910703232B41F42091060130910701D4
:101D4000309307032093060320910401309105018D
:101D50002115310541F42DB73EB74091080150914E
:101D60000901241B350BE0910603F0910703E217EC
:101D7000F307A0F42E1B3F0B2817390778F0AC01AE
:101D80004E5F5F4F2417350748F04E0F5F1F50938B
:101D9000070340930603819391939FCFF0E0E0E027
:101DA0009CCFCF93DF930097E9F0FC013297138229
:101DB0001282A0910803B0910903ED0130E020E008
:101DC0001097A1F420813181820F931F2091060387
:101DD000309107032817390709F061C0F093070312
:101DE000E0930603DF91CF910895EA01CE17DF0754
:101DF000E8F54A815B819E0141155105B1F7E90182
:101E0000FB83EA8349915991C40FD51FEC17FD0755
:101E100061F4808191810296840F951FE901998375
:101E20008883828193819B838A83F0E0E0E012962D
:101E30008D919C9113970097B9F52D913C91119735
:101E4000CD010296820F931F209106033091070364
:101E50002817390739F6309751F510920903109277
:101E60000803B0930703A0930603BCCFD383C283B8
:101E700040815181840F951FC817D90761F44E5FC7
:101E80005F4F88819981480F591F518340838A8110
:101E90009B81938382832115310509F0B0CFF093A4
:101EA0000903E09308039ECFFD01DC01C0CF13823C
:101EB0001282D7CFDC0101C06D9341505040E0F752
:101EC000089510E0CDE5D0E004C0FE010E941B0E95
:0C1ED0002196CE35D107C9F7F894FFCF5A
:101EDC000A030A0300000A03800000000000F60158
:101EEC00560183014802B4019201A60100000000D2
:101EFC0079034C03C9033C034D01E5003D030D0A76
:101F0C00004A75737420776F6B652075702E2E2EBA
:101F1C0000496E697420636F6D706C657465002088
:101F2C002D2D20006E616E00696E66006F76660066
:101F3C002043202D2D20416C61726D3A205B2000D6
:101F4C003121200032212000476F696E6720746FA9
:0A1F5C0020736C6565702E2E2E00B8
:107E0000112484B714BE81FFF0D085E080938100F7
:107E100082E08093C00088E18093C10086E0809377
:107E2000C20080E18093C4008EE0C9D0259A86E02C
:107E300020E33CEF91E0309385002093840096BBD3
:107E4000B09BFECF1D9AA8958150A9F7CC24DD24C4
:107E500088248394B5E0AB2EA1E19A2EF3E0BF2EE7
:107E6000A2D0813461F49FD0082FAFD0023811F036
:107E7000013811F484E001C083E08DD089C08234E0
:107E800011F484E103C0853419F485E0A6D080C0E4
:107E9000853579F488D0E82EFF2485D0082F10E0AE
:107EA000102F00270E291F29000F111F8ED06801E7
:107EB0006FC0863521F484E090D080E0DECF843638
:107EC00009F040C070D06FD0082F6DD080E0C81688
:107ED00080E7D80618F4F601B7BEE895C0E0D1E017
:107EE00062D089930C17E1F7F0E0CF16F0E7DF06D8
:107EF00018F0F601B7BEE89568D007B600FCFDCFD4
:107F0000A601A0E0B1E02C9130E011968C91119780
:107F100090E0982F8827822B932B1296FA010C0160
:107F200087BEE89511244E5F5F4FF1E0A038BF0790
:107F300051F7F601A7BEE89507B600FCFDCF97BE46
:107F4000E89526C08437B1F42ED02DD0F82E2BD052
:107F50003CD0F601EF2C8F010F5F1F4F84911BD097
:107F6000EA94F801C1F70894C11CD11CFA94CF0C13
:107F7000D11C0EC0853739F428D08EE10CD085E9AC
:107F80000AD08FE07ACF813511F488E018D01DD067
:107F900080E101D065CF982F8091C00085FFFCCF94
:107FA0009093C60008958091C00087FFFCCF809118
:107FB000C00084FD01C0A8958091C6000895E0E648
:107FC000F0E098E1908380830895EDDF803219F02E
:107FD00088E0F5DFFFCF84E1DECF1F93182FE3DFCA
:107FE0001150E9F7F2DF1F91089580E0E8DFEE27F6
:047FF000FF270994CA
:027FFE00040479
:0400000300007E007B
:00000001FF
